:020000040000FA
:10000000600200200102000015020000170200003B
:10001000190200001902000019020000000000008F
:1000200000000000000000000000000019020000B5
:10003000190200000000000019020000190200006F
:100040001902000019020000190200001902000044
:100050001902000019020000190200001902000034
:100060001902000019020000190200001902000024
:100070001902000019020000190200001902000014
:100080001902000019020000190200001902000004
:1000900019020000190200001902000019020000F4
:1000A00019020000190200001902000019020000E4
:1000B00019020000190200001902000019020000D4
:1000C00019020000190200001902000019020000C4
:1000D00019020000190200001902000019020000B4
:1000E00019020000190200001902000019020000A4
:1000F0001902000019020000190200001902000094
:100100001902000019020000190200001902000083
:100110001902000019020000190200001902000073
:100120001902000019020000190200001902000063
:100130001902000019020000190200001902000053
:100140001902000019020000190200001902000043
:100150000000000000000000190200001902000069
:10016000190200001902000000000000190200003E
:100170001902000019020000190200001902000013
:100180001902000019020000190200001902000003
:1001900019020000190200001902000019020000F3
:1001A00019020000190200001902000019020000E3
:1001B00019020000190200001902000019020000D3
:1001C00019020000190200001902000019020000C3
:1001D00019020000190200001902000019020000B3
:1001E00019020000190200001902000019020000A3
:1001F0001902000019020000190200001902000093
:100200004EF68850CEF20000016841F470010160A2
:1002100000F004B8FEE7FEE7FEE7000000F002F899
:1002200000F02EF80AA090E8000C82448344AAF162
:100230000107DA4501D100F023F8AFF2090EBAE860
:100240000F0013F0010F18BFFB1A43F0010318470A
:100250006803000078030000002300240025002626
:10026000103A28BF78C1FBD8520728BF30C148BF19
:100270000B6070471FB500F099F91FBD10B510BD98
:1002800000F01DF81146FFF7F5FF00F05BF900F0F4
:100290003BF803B4FFF7F2FF03BC00F043F80000A3
:1002A00002480349014A034B7047000060000020E8
:1002B000600200206000002070477047704775465C
:1002C00000F02CF8AE4605006946534620F00700C2
:1002D000854618B020B5FFF7E3FFBDE820404FF09A
:1002E00000064FF000074FF000084FF0000B21F020
:1002F0000701AC46ACE8C009ACE8C009ACE8C009ED
:10030000ACE8C0098D46704710B50446AFF30080D5
:100310002046BDE81040FFF7BCBF00000048704712
:100320000000002001491820ABBEFEE726000200B5
:100330007047D0F8003412F0010F14BF0B438B4309
:10034000C0F8003412F0020FD0F8202414BF11437B
:1003500022EA0101C0F82014704700002DE9F04F97
:10036000574ED6F800C0574FDFF85C810CEA070CF7
:10037000C44524D04FF0000C4FF001094FF0030AA0
:10038000C2F3411509FA0CF40C4211D0D0F8C4BFE5
:100390004FEA4C040AFA04FE2BEA0E0BC0F8C4BF65
:1003A000D0F8C4BF05FA04F44BEA0404C0F8C44F03
:1003B0000CF1010C0CF0FF0CBCF1080FE2D3D0F8EB
:1003C00000C512F0010F14BF4CEA010C2CEA010C1D
:1003D000C0F800C5D0F804C512F0020F14BF4CEAF3
:1003E000010C2CEA010CC0F804C5D0F808C512F0C5
:1003F000040F14BF4CEA010C2CEA010CC0F808C52C
:10040000D0F818C512F0080F14BF4CEA010C2CEA02
:10041000010CC0F818C5D6F800C00CEA070CC4459A
:1004200008D012F0100FD0F83C250CBF8A430A43C5
:10043000C0F83C25D0F80C2513F0010F14BF0A4377
:100440008A43C0F80C25D0F8102513F0020F14BF12
:100450000A438A43C0F81025D0F8142513F0040F7E
:1004600014BF0A438A43C0F81425D0F81C2513F0A2
:10047000080F14BF0A438A43C0F81C2532683A406B
:10048000424511D0D0F8442513F4007F0CBF8A43B5
:100490000A43C0F84425D0F8402513F4407F14BF28
:1004A0000A438A43C0F84025D0F82825002B0CBF0A
:1004B000114322EA0101C0F82815BDE8F08F0000C1
:1004C00000E00F400000FF700000051030B50C4642
:1004D000054608230122FFF741FF21462846BDE8D3
:1004E00030400122FFF725BF40F82120704700006F
:1004F000C0F307230749C0B2194401F07043C1F3A8
:10050000130143EA411141EA800040F000700122EA
:100510000260704700E60F40C0F307220849C0B2EE
:10052000114401F07042C1F3130142EA411141EA62
:10053000800040F000700068002818BF012070475C
:1005400000EA0F4008B51648FFF7D2FF00BF144875
:10055000FFF7E2FF0028FAD001211248FFF7B6FFAB
:100560001DE0012211460F48FFF7BEFF002000905A
:1005700002E00098401C00900B4900988842F8D394
:10058000002201210748FFF7AFFF0020009002E0A2
:100590000098401C0090044900988842F8D3E0E796
:1005A0000C0800F000400640400D03004FF0407082
:1005B000E1EE100A70470000C805000000000020AE
:0805C000600200005802000077
:0400000500000201F4
:00000001FF
