:020000040000FA
:10000000D0080020010200001502000017020000C5
:10001000190200001902000019020000000000008F
:1000200000000000000000000000000019020000B5
:10003000190200000000000019020000190200006F
:100040001902000019020000190200001902000044
:100050001902000019020000190200001902000034
:100060001902000019020000190200001902000024
:100070001902000019020000190200001902000014
:100080001902000019020000190200001902000004
:1000900019020000190200001902000019020000F4
:1000A00019020000190200001902000019020000E4
:1000B00019020000190200001902000019020000D4
:1000C00019020000190200001902000019020000C4
:1000D00019020000190200001902000019020000B4
:1000E00019020000190200001902000019020000A4
:1000F0001902000019020000190200001902000094
:100100001902000019020000190200001902000083
:100110001902000019020000190200001902000073
:100120001902000019020000190200001902000063
:100130001902000019020000190200001902000053
:100140001902000019020000190200001902000043
:100150000000000000000000190200001902000069
:10016000190200001902000000000000190200003E
:100170001902000019020000190200001902000013
:100180001902000019020000190200001902000003
:1001900019020000190200001902000019020000F3
:1001A00019020000190200001902000019020000E3
:1001B00019020000190200001902000019020000D3
:1001C00019020000190200001902000019020000C3
:1001D00019020000190200001902000019020000B3
:1001E00019020000190200001902000019020000A3
:1001F0001902000019020000190200001902000093
:100200004EF68850CEF20000016841F470010160A2
:1002100000F004B8FEE7FEE7FEE7000000F002F899
:1002200000F04CF80AA090E8000C82448344AAF144
:100230000107DA4501D100F041F8AFF2090EBAE842
:100240000F0013F0010F18BFFB1A43F0010318470A
:100250009C120000BC1200000A4410F8014B14F07C
:100260000F0508BF10F8015B240908BF10F8014B07
:100270006D1E05D010F8013B6D1E01F8013BF9D150
:10028000641E03D0641E01F8015BFBD19142E4D3EC
:10029000704700000023002400250026103A28BFE4
:1002A00078C1FBD8520728BF30C148BF0B607047E8
:1002B0001FB500F011FE1FBD10B510BD00F01DF8F8
:1002C0001146FFF7F5FF00F0A9FC00F03BF803B47E
:1002D000FFF7F2FF03BC00F043F8000002480349B7
:1002E000014A034B70470000D0060020D0080020D0
:1002F000D0060020704770477047754600F02CF814
:10030000AE4605006946534620F00700854618B002
:1003100020B5FFF7E3FFBDE820404FF000064FF0A7
:1003200000074FF000084FF0000B21F00701AC462A
:10033000ACE8C009ACE8C009ACE8C009ACE8C00949
:100340008D46704710B50446AFF300802046BDE8E7
:100350001040FFF7BCBF0000004870476C0600204B
:1003600001491820ABBEFEE7260002007047D0F816
:10037000003412F0010F14BF0B438B43C0F800345C
:1003800012F0020FD0F8202414BF114322EA010119
:10039000C0F82014704700002DE9F04F574ED6F8F2
:1003A00000C0574FDFF85C810CEA070CC44524D02D
:1003B0004FF0000C4FF001094FF0030AC2F3411552
:1003C00009FA0CF40C4211D0D0F8C4BF4FEA4C0427
:1003D0000AFA04FE2BEA0E0BC0F8C4BFD0F8C4BF63
:1003E00005FA04F44BEA0404C0F8C44F0CF1010C04
:1003F0000CF0FF0CBCF1080FE2D3D0F800C512F0EE
:10040000010F14BF4CEA010C2CEA010CC0F800C526
:10041000D0F804C512F0020F14BF4CEA010C2CEA0C
:10042000010CC0F804C5D0F808C512F0040F14BFC1
:100430004CEA010C2CEA010CC0F808C5D0F818C52C
:1004400012F0080F14BF4CEA010C2CEA010CC0F8A2
:1004500018C5D6F800C00CEA070CC44508D012F045
:10046000100FD0F83C250CBF8A430A43C0F83C2546
:10047000D0F80C2513F0010F14BF0A438A43C0F8CB
:100480000C25D0F8102513F0020F14BF0A438A433D
:10049000C0F81025D0F8142513F0040F14BF0A4338
:1004A0008A43C0F81425D0F81C2513F0080F14BF98
:1004B0000A438A43C0F81C2532683A40424511D0AD
:1004C000D0F8442513F4007F0CBF8A430A43C0F8D8
:1004D0004425D0F8402513F4407F14BF0A438A43D3
:1004E000C0F84025D0F82825002B0CBF114322EA84
:1004F0000101C0F82815BDE8F08F000000E00F40B2
:100500000000FF70000005100E4AC0F30741D26ED4
:1005100001238B401A420C4A1ABF02EBC101496801
:1005200052F83110020AD1F82C354FF00F0C0CFAAA
:1005300002FC00F00F0023EA0C0390401843C1F8BE
:100540002C05704700E00F407C10000030B50C46D1
:10055000054608230122FFF71FFF21462846BDE874
:1005600030400122FFF703BF30B50C46054602229A
:10057000FFF7FDFE21462846BDE830400823012252
:10058000FFF70ABF40F821207047000010B50E4861
:1005900000F0E2F900BF0C4800F0F2F90028FAD0B0
:1005A00003210A48FFF7D2FF0748C01F00F0D4F923
:1005B00000BF0548C01F00F0E3F90028F9D0112161
:1005C0000348FFF7C3FF10BD0C0800F000400640D1
:1005D000005002401649042804BF086840F48030E7
:1005E00018D0052804BF086840F4003012D006284F
:1005F00012D00F2815D0102838BF7047103800F0DF
:100600001F01012202FA01F142090A4850F82200B2
:100610000160704708607047086840F480200860F7
:1006200070474FF0E020016941F00201016170471D
:1006300024ED00E09C14000030B40A4D2A680A4BF7
:100640009A421CBFD5F800C0002207D05CF82240B7
:1006500043F82240521C9B2AF8D32B6043F8201009
:1006600030BC704708ED00E0000400202DE9F003E5
:10067000AF4D02462868AF4B1840A0F18053B3F548
:10068000A02359D002F03809DFF8AC82C2F38414F9
:10069000B9F1100F25D0B9F1300F04BF47F2305037
:1006A0004FF400130DD04FF03800904304BF4FF4C7
:1006B0000040C30105D012F0380F1CBF00200346D4
:1006C00013D09E4F12F4605F4FF0000618BF002257
:1006D0002CD057F8324044457DD307EBC202526814
:1006E000E1E0002340461524EBE7A4F109001228BD
:1006F00022D29348D5F87CC04FF04C7350F82400B8
:100700002CF01C0C072CA8BF4CF0100CC5F87CC0BA
:100710002E6D4FF4002C16F4807FD2D1BCF1010C69
:100720000AD02E6D16F4807FF8D0CAE712F0380F89
:1007300018BFB9F1100F04D0BDE8F0034FF000006E
:100740007047C2F30268DFF8FCC14FF0000257F8AF
:100750003290E14503D307EBC202526803E0521C1A
:10076000062AF4D33246C5F8C020D5F8B020DFF809
:10077000D8C102EA0C0242F00042C5F8B020DFF80E
:10078000CCC1A4F109024C1E5CF828C0A444BCFBF7
:10079000F1FCD5F8B0101943C5F8B01008EBC8014A
:1007A00001EB41046A4902EB420201EBC40101EB97
:1007B00082046468C5F86441D5F864416FF0FF08AD
:1007C00008EB0C2C44EA0C0CC5F864C151F822105B
:1007D000D5F8602100E061E002F400021143C5F8A1
:1007E0006011D5F86011D5F86021C1F38921C2F3F9
:1007F0000904D5F86421C2F3042202F1010CD5F8F2
:10080000642102F01F02521CB0FBF2F04A09C2F14F
:1008100000084443424301EB481104EB52124843A1
:1008200002EB9020B0FBFCF041080846002257F88C
:1008300032C0844503D307EBC200466802E0521C75
:10084000062AF4D3C5F8C060D5F8600110F4000F93
:100850001DBFD5F8B00040F08040C5F8B000D5F815
:10086000600104BF40F40000C5F860014FF400408F
:10087000D5F8682112F0010F02D1401E0028F7DCE4
:10088000002808BF002148D0D5F8B000184340F038
:10089000010040F01040C5F8B0003EE0521C062AAE
:1008A000FFF417AF3246C5F8C020D5F8602122F416
:1008B0000002C5F86021D5F8B020DFF898C002EA40
:1008C0000C0242F00042C5F8B020002908BF4FF0EA
:1008D000000C0AD0B0FBF1FCBCF1000F18BFACF16A
:1008E000010C0CF10101B0FBF1F10846002257F8B0
:1008F0003240844203D307EBC200466802E0521C38
:10090000062AF4D3C5F8C060D5F8B00043EA8C22BB
:10091000104340F00040C5F8B000D5F8B00020F416
:100920007000C5F8B000BDE8F0030846704700004D
:1009300000E00F400000FF700024F40030130000BE
:100940001411000040787D0100FC0FE00C11000044
:1009500080110000FF0300EFC0F307230749C0B276
:10096000194401F07043C1F3130143EA411141EA14
:10097000800040F0007001220260704700E60F40E6
:10098000C0F307220849C0B2114401F07042C1F31C
:10099000130142EA411141EA800040F00070006812
:1009A000002818BF0120704700EA0F404FF0E020F8
:1009B000016921F00101016170474FF0E0200169F8
:1009C00041F00501016170474FF0E020016941F0FD
:1009D000020101617047000002480068401C0149A3
:1009E000086070470000002010B501460F20FFF797
:1009F00023FE4FF0E020016941F00201016110BDCA
:100A00004FF0E021401E48617047000010B5002003
:100A100007490860FFF7CAFF0648FFF7F1FF0648DD
:100A2000FFF7E2FFFFF7D0FFFFF7C7FF10BD0000A1
:100A300000000020ADD40100D9090000816911F047
:100A4000100F0CBF00684FF0FF307047826912F042
:100A5000200FFBD101607047D0F818C01CF0080FC0
:100A6000FAD1D0F82CC02CF0100CC0F82CC0D0F863
:100A700030C02CF0010C2CF4407CC0F830C0D0F811
:100A800030C0B1EB021F34BF4CF0200C2CF0200C16
:100A9000C0F830C038BF5208C900B1FBF2F1491CA0
:100AA00049088A09426201F03F018162C362002164
:100AB0008161C16A41F01001C162016B40F20132F3
:100AC000114301637047C16A21F01001C162704790
:100AD00041647047826B114381637047124A10B5BD
:100AE000104B12684FF0080C104C2240A2F18054B9
:100AF000B4F5202408BF0E4B002253F83240844244
:100B000003D103EBC200446803E0521C6245F4D3F6
:100B100000242046FFF790FD2046BDE81040FFF777
:100B200059BD00006013000000E00F400000FF709E
:100B3000A0130000002914BF006CC06B70470000B8
:100B400070B501210C48FFF7F5FF054629460A4814
:100B5000FFF7BEFF0848FFF771FFC4B207484078AF
:100B6000064908700846807848700846C078887042
:100B70000846C47070BD000000C0004004000020A2
:100B800070B504460D4604E014F8011B0348FFF756
:100B90005DFF281EA5F10105F6D170BD00C0004023
:100BA00010B51948FFF7D8FE00BF1748FFF7E8FE59
:100BB0000028FAD060234FF4E13214480168144849
:100BC000FFF74AFF1248FFF77EFF10211048FFF79A
:100BD00081FF10490E48FFF781FF0F48FFF7BCFE69
:100BE00000BF0D48FFF7CCFE0028FAD00120FFF728
:100BF0008BFC40F20140FFF787FC03214FF04020BF
:100C0000FFF7B2FC10BD0000001800F00C0000203F
:100C100000C00040410B0000000800F01CB59349E3
:100C20009348FFF723FD93490860FFF7EFFEFFF7B6
:100C3000ADFCFFF7B5FF18E18F480078232875D188
:100C40008D4840785228FAD18B488078302821D1BD
:100C50008948C07830280CD1002202218748FFF74C
:100C600091FC002086490870052186A0FFF788FFC7
:100C700082E08148C07831287ED1022211467F4827
:100C8000FFF780FC01207E49087005217FA0FFF757
:100C900077FF71E078488078312821D17648C07894
:100CA00030280CD1002201217448FFF76BFC002092
:100CB00073494870052177A0FFF762FF5CE06E483A
:100CC000C078312858D1012211466C48FFF75AFCF0
:100CD00001206B494870052170A0FFF751FF4BE0E0
:100CE00065488078322822D16348C07830280CD1FA
:100CF000002210216B48FFF745FC002060498870F6
:100D0000052169A0FFF73CFF36E05B48C078312839
:100D100032D1102211466348FFF734FC01205849B4
:100D20008870052162A0FFF72BFF25E027E05248DD
:100D30008078332820D15048C07830280CD1002248
:100D400001215848FFF71EFC00204D49C8700521BD
:100D500059A0FFF715FF0FE04748C07831280BD1A5
:100D6000012211464F48FFF70DFC01204449C8708D
:100D7000052153A0FFF704FF00203F4908703E48BB
:100D8000007823283FD13C48407854283BD13A484A
:100D90008078582837D13848C078302816D10022BA
:100DA00003213648FFF7EEFB002211213D48FFF7F3
:100DB000E9FB002003E00021314A1154401C0428C3
:100DC000F9DB052140A0FFF7DBFE19E02A48C078D7
:100DD000312815D1032211462848FFF7D3FB1122F1
:100DE00011463048FFF7CEFB002003E00121244AE2
:100DF0001154401C0428F9DB052135A0FFF7C0FE83
:100E000000201D4908701C48007823282DD11A485D
:100E10004078542829D118488078532825D116487D
:100E2000C078542821D10024002004E01449095C32
:100E300001EB4404401C0428F8DB4034E5B24020B8
:100E40008DF8000054208DF8010053208DF8020029
:100E50008DF8035000208DF8040005216846FFF747
:100E60008FFE00200449087000BFE5E6000E27074A
:100E7000800600F10C000020040000200040064025
:100E80000800002040523030000000004052303155
:100E9000000000004052313000000000405231316B
:100EA00000000000005002404052323000000000BC
:100EB0004052323100000000405233300000000048
:100EC0004052333100000000405458300000000010
:100ED00040545831000000004FF04070E1EE100A1D
:100EE00070470000004000401000000000800540F6
:100EF000100000000050004011000000009005406C
:100F000011000000006000401200000000A0054039
:100F100012000000007000401300000000B0054007
:100F200013000000004002401400000000C0054013
:100F300014000000005002402E00000000D00540C8
:100F40002E000000006002402F00000000E005407D
:100F50002F000000007002403000000000F005404B
:100F60003000000000D003404600000000000640B2
:100F70004600000000100640470000000020064028
:100F800048000000003006407F000000004006409E
:100F90008000000000500640840000000060064011
:100FA0008C00000000400040100000000080054060
:100FB00010000000005000401100000000900540AB
:100FC00011000000006000401200000000A0054079
:100FD00012000000007000401300000000B0054047
:100FE00013000000004002401400000000C0054053
:100FF00014000000005002402E00000000D0054008
:101000002E000000006002402F00000000E00540BC
:101010002F000000007002403000000000F005408A
:101020003000000000D003404300000000000640F4
:10103000430000000010064044000000002006406D
:101040004500000000300640580000000040064007
:1010500059000000005006405C000000006006409F
:1010600064000000007006406C0000000080064034
:101070006D000000009006407F000000004000402E
:101080000080054000500040009005400060004096
:1010900000A005400070004000B005400040024044
:1010A00000C005400050024000D0054000600240F2
:1010B00000E005400070024000F0054000D0034011
:1010C00000000640001006400010064000200640C8
:1010D0000020064000300640003006400040064038
:1010E00000400640005006400050064000600640A8
:1010F0000060064000700640007006400080064018
:101100000080064000900640009006400068890973
:10111000001C4E0E40420F0000201C0080841E0068
:1011200000802500999E36000040380000093D00EF
:1011300000803E0000004B00404B4C0000204E0061
:10114000808D5B0000C05D000080700000127A009E
:1011500000007D0080969800001BB7000080BB0057
:10116000C0E8CE00647ADA000024F4000000FA003F
:1011700080A81201002D310100366E0140787D01FA
:101180004000000000000000000100003E000800D8
:101190000000000000010000A000000002000000AC
:1011A00000010000345401000000000000010000B4
:1011B0002B70060000000000000100002800000065
:1011C00000000000000100002700010000000000F6
:1011D00000010000200000000000000000010000ED
:1011E0005000000002000000000100001AAC0000E6
:1011F000000000000001000017940900000000003A
:101200000001000016980500000000000001000029
:10121000140000000000000000010000138008001E
:101220000000000000010000A00000000800000015
:10123000000100001000000000000000000100009C
:101240002800000002000000000100004000000033
:101250000400000000010000600000000000000029
:10126000000100005D000C00000000000001000013
:101270005000000000000000000100004E000200CD
:10128000000000000001000041AC0100000000006F
:10129000000100003C000000000000000001000010
:1012A0003A8009000000000000010000300000004A
:1012B0000000000000010000280000000000000005
:1012C00000010000270001000000000000010000F4
:1012D00023600600000000000001000021600800FB
:1012E00000000000000100001E00000000000000DF
:1012F000000100001DC0040000000000000100000B
:101300005000000002000000000100001800000072
:1013100000000000000100001400000000000000B8
:101320000001000060000000040000000001000057
:101330000024F40030003000005A62029100910055
:1013400000879303D200D20000B4C4041301130138
:1013500000E1F50554015401000E270795019501A0
:1013600000C000401500000000D000401600000042
:1013700000E000403100000000F000404B000000A1
:10138000000001404C000000001001404D00000032
:10139000002001404E000000003001404F000000DE
:1013A00000C000401500000000D000401600000002
:1013B00000E000403100000000F000404800000064
:1013C0000000014049000000001001404A000000F8
:1013D000002001404B000000003001404C000000A4
:1013E00000070000000600000005000000040000E7
:1013F00000030000000200000001000000000000E7
:101400000000000018ED00E01CED00E020ED00E021
:1014100000E400E004E400E008E400E00CE400E0A4
:1014200010E400E014E400E018E400E01CE400E054
:1014300020E400E024E400E028E400E02CE400E004
:1014400030E400E034E400E038E400E03CE400E0B4
:1014500040E400E044E400E048E400E04CE400E064
:1014600050E400E054E400E058E400E05CE400E014
:1014700060E400E064E400E068E400E06CE400E0C4
:1014800070E400E074E400E078E400E07CE400E074
:1014900080E400E084E400E088E400E000E100E0B3
:1014A00004E100E008E100E00CE100E010E100E010
:1014B00080E100E084E100E088E100E08CE100E010
:1014C00090E100E000E200E004E200E008E200E079
:1014D0000CE200E010E200E080E200E084E200E0E4
:1014E00088E200E08CE200E090E200E00C150000F1
:1014F000000000206C060000580200001C150000CF
:101500006C060020640200009402000001FF01FF4D
:0C15100001FF01FF01FF01FF0179000055
:0400000500000201F4
:00000001FF
